{
  "_format": "hh-sol-artifact-1",
  "contractName": "ArthurRouter",
  "sourceName": "contracts/ArthurRouter.sol",
  "abi": [
    {
      "inputs": [
        {
          "internalType": "address",
          "name": "_factory",
          "type": "address"
        },
        {
          "internalType": "address",
          "name": "_WETH",
          "type": "address"
        }
      ],
      "stateMutability": "nonpayable",
      "type": "constructor"
    },
    {
      "inputs": [],
      "name": "WETH",
      "outputs": [
        {
          "internalType": "address",
          "name": "",
          "type": "address"
        }
      ],
      "stateMutability": "view",
      "type": "function"
    },
    {
      "inputs": [
        {
          "internalType": "address",
          "name": "tokenA",
          "type": "address"
        },
        {
          "internalType": "address",
          "name": "tokenB",
          "type": "address"
        },
        {
          "internalType": "uint256",
          "name": "amountADesired",
          "type": "uint256"
        },
        {
          "internalType": "uint256",
          "name": "amountBDesired",
          "type": "uint256"
        },
        {
          "internalType": "uint256",
          "name": "amountAMin",
          "type": "uint256"
        },
        {
          "internalType": "uint256",
          "name": "amountBMin",
          "type": "uint256"
        },
        {
          "internalType": "address",
          "name": "to",
          "type": "address"
        },
        {
          "internalType": "uint256",
          "name": "deadline",
          "type": "uint256"
        },
        {
          "internalType": "uint256",
          "name": "timeLock",
          "type": "uint256"
        }
      ],
      "name": "addLiquidity",
      "outputs": [
        {
          "internalType": "uint256",
          "name": "amountA",
          "type": "uint256"
        },
        {
          "internalType": "uint256",
          "name": "amountB",
          "type": "uint256"
        },
        {
          "internalType": "uint256",
          "name": "liquidity",
          "type": "uint256"
        }
      ],
      "stateMutability": "nonpayable",
      "type": "function"
    },
    {
      "inputs": [
        {
          "internalType": "address",
          "name": "token",
          "type": "address"
        },
        {
          "internalType": "uint256",
          "name": "amountTokenDesired",
          "type": "uint256"
        },
        {
          "internalType": "uint256",
          "name": "amountTokenMin",
          "type": "uint256"
        },
        {
          "internalType": "uint256",
          "name": "amountETHMin",
          "type": "uint256"
        },
        {
          "internalType": "address",
          "name": "to",
          "type": "address"
        },
        {
          "internalType": "uint256",
          "name": "deadline",
          "type": "uint256"
        },
        {
          "internalType": "uint256",
          "name": "timeLock",
          "type": "uint256"
        }
      ],
      "name": "addLiquidityETH",
      "outputs": [
        {
          "internalType": "uint256",
          "name": "amountToken",
          "type": "uint256"
        },
        {
          "internalType": "uint256",
          "name": "amountETH",
          "type": "uint256"
        },
        {
          "internalType": "uint256",
          "name": "liquidity",
          "type": "uint256"
        }
      ],
      "stateMutability": "payable",
      "type": "function"
    },
    {
      "inputs": [],
      "name": "factory",
      "outputs": [
        {
          "internalType": "address",
          "name": "",
          "type": "address"
        }
      ],
      "stateMutability": "view",
      "type": "function"
    },
    {
      "inputs": [
        {
          "internalType": "uint256",
          "name": "amountIn",
          "type": "uint256"
        },
        {
          "internalType": "address[]",
          "name": "path",
          "type": "address[]"
        }
      ],
      "name": "getAmountsOut",
      "outputs": [
        {
          "internalType": "uint256[]",
          "name": "amounts",
          "type": "uint256[]"
        }
      ],
      "stateMutability": "view",
      "type": "function"
    },
    {
      "inputs": [
        {
          "internalType": "address",
          "name": "token1",
          "type": "address"
        },
        {
          "internalType": "address",
          "name": "token2",
          "type": "address"
        }
      ],
      "name": "getPair",
      "outputs": [
        {
          "internalType": "address",
          "name": "",
          "type": "address"
        }
      ],
      "stateMutability": "view",
      "type": "function"
    },
    {
      "inputs": [
        {
          "internalType": "uint256",
          "name": "amountA",
          "type": "uint256"
        },
        {
          "internalType": "uint256",
          "name": "reserveA",
          "type": "uint256"
        },
        {
          "internalType": "uint256",
          "name": "reserveB",
          "type": "uint256"
        }
      ],
      "name": "quote",
      "outputs": [
        {
          "internalType": "uint256",
          "name": "amountB",
          "type": "uint256"
        }
      ],
      "stateMutability": "pure",
      "type": "function"
    },
    {
      "inputs": [
        {
          "internalType": "address",
          "name": "tokenA",
          "type": "address"
        },
        {
          "internalType": "address",
          "name": "tokenB",
          "type": "address"
        },
        {
          "internalType": "uint256",
          "name": "liquidity",
          "type": "uint256"
        },
        {
          "internalType": "uint256",
          "name": "amountAMin",
          "type": "uint256"
        },
        {
          "internalType": "uint256",
          "name": "amountBMin",
          "type": "uint256"
        },
        {
          "internalType": "address",
          "name": "to",
          "type": "address"
        },
        {
          "internalType": "uint256",
          "name": "deadline",
          "type": "uint256"
        }
      ],
      "name": "removeLiquidity",
      "outputs": [
        {
          "internalType": "uint256",
          "name": "amountA",
          "type": "uint256"
        },
        {
          "internalType": "uint256",
          "name": "amountB",
          "type": "uint256"
        }
      ],
      "stateMutability": "nonpayable",
      "type": "function"
    },
    {
      "inputs": [
        {
          "internalType": "address",
          "name": "token",
          "type": "address"
        },
        {
          "internalType": "uint256",
          "name": "liquidity",
          "type": "uint256"
        },
        {
          "internalType": "uint256",
          "name": "amountTokenMin",
          "type": "uint256"
        },
        {
          "internalType": "uint256",
          "name": "amountETHMin",
          "type": "uint256"
        },
        {
          "internalType": "address",
          "name": "to",
          "type": "address"
        },
        {
          "internalType": "uint256",
          "name": "deadline",
          "type": "uint256"
        }
      ],
      "name": "removeLiquidityETH",
      "outputs": [
        {
          "internalType": "uint256",
          "name": "amountToken",
          "type": "uint256"
        },
        {
          "internalType": "uint256",
          "name": "amountETH",
          "type": "uint256"
        }
      ],
      "stateMutability": "nonpayable",
      "type": "function"
    },
    {
      "inputs": [
        {
          "internalType": "address",
          "name": "token",
          "type": "address"
        },
        {
          "internalType": "uint256",
          "name": "liquidity",
          "type": "uint256"
        },
        {
          "internalType": "uint256",
          "name": "amountTokenMin",
          "type": "uint256"
        },
        {
          "internalType": "uint256",
          "name": "amountETHMin",
          "type": "uint256"
        },
        {
          "internalType": "address",
          "name": "to",
          "type": "address"
        },
        {
          "internalType": "uint256",
          "name": "deadline",
          "type": "uint256"
        }
      ],
      "name": "removeLiquidityETHSupportingFeeOnTransferTokens",
      "outputs": [
        {
          "internalType": "uint256",
          "name": "amountETH",
          "type": "uint256"
        }
      ],
      "stateMutability": "nonpayable",
      "type": "function"
    },
    {
      "inputs": [
        {
          "internalType": "address",
          "name": "token",
          "type": "address"
        },
        {
          "internalType": "uint256",
          "name": "liquidity",
          "type": "uint256"
        },
        {
          "internalType": "uint256",
          "name": "amountTokenMin",
          "type": "uint256"
        },
        {
          "internalType": "uint256",
          "name": "amountETHMin",
          "type": "uint256"
        },
        {
          "internalType": "address",
          "name": "to",
          "type": "address"
        },
        {
          "internalType": "uint256",
          "name": "deadline",
          "type": "uint256"
        },
        {
          "internalType": "bool",
          "name": "approveMax",
          "type": "bool"
        },
        {
          "internalType": "uint8",
          "name": "v",
          "type": "uint8"
        },
        {
          "internalType": "bytes32",
          "name": "r",
          "type": "bytes32"
        },
        {
          "internalType": "bytes32",
          "name": "s",
          "type": "bytes32"
        }
      ],
      "name": "removeLiquidityETHWithPermit",
      "outputs": [
        {
          "internalType": "uint256",
          "name": "amountToken",
          "type": "uint256"
        },
        {
          "internalType": "uint256",
          "name": "amountETH",
          "type": "uint256"
        }
      ],
      "stateMutability": "nonpayable",
      "type": "function"
    },
    {
      "inputs": [
        {
          "internalType": "address",
          "name": "token",
          "type": "address"
        },
        {
          "internalType": "uint256",
          "name": "liquidity",
          "type": "uint256"
        },
        {
          "internalType": "uint256",
          "name": "amountTokenMin",
          "type": "uint256"
        },
        {
          "internalType": "uint256",
          "name": "amountETHMin",
          "type": "uint256"
        },
        {
          "internalType": "address",
          "name": "to",
          "type": "address"
        },
        {
          "internalType": "uint256",
          "name": "deadline",
          "type": "uint256"
        },
        {
          "internalType": "bool",
          "name": "approveMax",
          "type": "bool"
        },
        {
          "internalType": "uint8",
          "name": "v",
          "type": "uint8"
        },
        {
          "internalType": "bytes32",
          "name": "r",
          "type": "bytes32"
        },
        {
          "internalType": "bytes32",
          "name": "s",
          "type": "bytes32"
        }
      ],
      "name": "removeLiquidityETHWithPermitSupportingFeeOnTransferTokens",
      "outputs": [
        {
          "internalType": "uint256",
          "name": "amountETH",
          "type": "uint256"
        }
      ],
      "stateMutability": "nonpayable",
      "type": "function"
    },
    {
      "inputs": [
        {
          "internalType": "address",
          "name": "tokenA",
          "type": "address"
        },
        {
          "internalType": "address",
          "name": "tokenB",
          "type": "address"
        },
        {
          "internalType": "uint256",
          "name": "liquidity",
          "type": "uint256"
        },
        {
          "internalType": "uint256",
          "name": "amountAMin",
          "type": "uint256"
        },
        {
          "internalType": "uint256",
          "name": "amountBMin",
          "type": "uint256"
        },
        {
          "internalType": "address",
          "name": "to",
          "type": "address"
        },
        {
          "internalType": "uint256",
          "name": "deadline",
          "type": "uint256"
        },
        {
          "internalType": "bool",
          "name": "approveMax",
          "type": "bool"
        },
        {
          "internalType": "uint8",
          "name": "v",
          "type": "uint8"
        },
        {
          "internalType": "bytes32",
          "name": "r",
          "type": "bytes32"
        },
        {
          "internalType": "bytes32",
          "name": "s",
          "type": "bytes32"
        }
      ],
      "name": "removeLiquidityWithPermit",
      "outputs": [
        {
          "internalType": "uint256",
          "name": "amountA",
          "type": "uint256"
        },
        {
          "internalType": "uint256",
          "name": "amountB",
          "type": "uint256"
        }
      ],
      "stateMutability": "nonpayable",
      "type": "function"
    },
    {
      "inputs": [
        {
          "internalType": "uint256",
          "name": "amountOutMin",
          "type": "uint256"
        },
        {
          "internalType": "address[]",
          "name": "path",
          "type": "address[]"
        },
        {
          "internalType": "address",
          "name": "to",
          "type": "address"
        },
        {
          "internalType": "address",
          "name": "referrer",
          "type": "address"
        },
        {
          "internalType": "uint256",
          "name": "deadline",
          "type": "uint256"
        }
      ],
      "name": "swapExactETHForTokensSupportingFeeOnTransferTokens",
      "outputs": [],
      "stateMutability": "payable",
      "type": "function"
    },
    {
      "inputs": [
        {
          "internalType": "uint256",
          "name": "amountIn",
          "type": "uint256"
        },
        {
          "internalType": "uint256",
          "name": "amountOutMin",
          "type": "uint256"
        },
        {
          "internalType": "address[]",
          "name": "path",
          "type": "address[]"
        },
        {
          "internalType": "address",
          "name": "to",
          "type": "address"
        },
        {
          "internalType": "address",
          "name": "referrer",
          "type": "address"
        },
        {
          "internalType": "uint256",
          "name": "deadline",
          "type": "uint256"
        }
      ],
      "name": "swapExactTokensForETHSupportingFeeOnTransferTokens",
      "outputs": [],
      "stateMutability": "nonpayable",
      "type": "function"
    },
    {
      "inputs": [
        {
          "internalType": "uint256",
          "name": "amountIn",
          "type": "uint256"
        },
        {
          "internalType": "uint256",
          "name": "amountOutMin",
          "type": "uint256"
        },
        {
          "internalType": "address[]",
          "name": "path",
          "type": "address[]"
        },
        {
          "internalType": "address",
          "name": "to",
          "type": "address"
        },
        {
          "internalType": "address",
          "name": "referrer",
          "type": "address"
        },
        {
          "internalType": "uint256",
          "name": "deadline",
          "type": "uint256"
        }
      ],
      "name": "swapExactTokensForTokensSupportingFeeOnTransferTokens",
      "outputs": [],
      "stateMutability": "nonpayable",
      "type": "function"
    },
    {
      "stateMutability": "payable",
      "type": "receive"
    }
  ],
  "bytecode": "0x60c060405234801561001057600080fd5b506040516130bd3803806130bd8339818101604052604081101561003357600080fd5b5080516020909101516001600160601b0319606092831b8116608052911b1660a05260805160601c60a05160601c612f9f61011e60003980610107528061083e52806108795280610a535280610bdb5280610c915280610e8a5280610fbd5280611014528061104852806110bc528061143f52806114c25280611571528061164852806116ef52806117635280611d4c5250806109155280610b145280610d865280610e685280610ff2528061179552806119f05280611c9e5280611cc75280611d2a5280611e3b528061232a528061251552806126b9528061276e52806127ee5250612f9f6000f3fe6080604052600436106100f75760003560e01c8063ad615dec1161008a578063c45a015511610059578063c45a01551461065c578063d06ca61f14610671578063ded9382a14610743578063e6a43905146107b657610130565b8063ad615dec146104e8578063af2979eb1461051e578063b4822be314610571578063baa2abde146105ff57610130565b80635b0d5984116100c65780635b0d5984146103465780636bb6a6f6146103cb578063ac3893ba14610417578063ad5c4648146104b757610130565b806302751cec146101355780632195995c146101a157806352aa4c221461021f57806357528cca146102bf57610130565b3661013057336001600160a01b037f0000000000000000000000000000000000000000000000000000000000000000161461012e57fe5b005b600080fd5b34801561014157600080fd5b50610188600480360360c081101561015857600080fd5b506001600160a01b0381358116916020810135916040820135916060810135916080820135169060a001356107f1565b6040805192835260208301919091528051918290030190f35b3480156101ad57600080fd5b5061018860048036036101608110156101c557600080fd5b506001600160a01b038135811691602081013582169160408201359160608101359160808201359160a08101359091169060c08101359060e081013515159060ff610100820135169061012081013590610140013561090b565b34801561022b57600080fd5b5061012e600480360360c081101561024257600080fd5b813591602081013591810190606081016040820135600160201b81111561026857600080fd5b82018360208201111561027a57600080fd5b803590602001918460208302840111600160201b8311171561029b57600080fd5b91935091506001600160a01b03813581169160208101359091169060400135610a05565b3480156102cb57600080fd5b5061032860048036036101208110156102e357600080fd5b506001600160a01b038135811691602081013582169160408201359160608101359160808201359160a08101359160c0820135169060e0810135906101000135610d22565b60408051938452602084019290925282820152519081900360600190f35b34801561035257600080fd5b506103b9600480360361014081101561036a57600080fd5b506001600160a01b0381358116916020810135916040820135916060810135916080820135169060a08101359060c081013515159060ff60e08201351690610100810135906101200135610e60565b60408051918252519081900360200190f35b610328600480360360e08110156103e157600080fd5b506001600160a01b0381358116916020810135916040820135916060810135916080820135169060a08101359060c00135610f6e565b34801561042357600080fd5b5061012e600480360360c081101561043a57600080fd5b813591602081013591810190606081016040820135600160201b81111561046057600080fd5b82018360208201111561047257600080fd5b803590602001918460208302840111600160201b8311171561049357600080fd5b91935091506001600160a01b03813581169160208101359091169060400135611215565b3480156104c357600080fd5b506104cc61143d565b604080516001600160a01b039092168252519081900360200190f35b3480156104f457600080fd5b506103b96004803603606081101561050b57600080fd5b5080359060208101359060400135611461565b34801561052a57600080fd5b506103b9600480360360c081101561054157600080fd5b506001600160a01b0381358116916020810135916040820135916060810135916080820135169060a00135611476565b61012e600480360360a081101561058757600080fd5b81359190810190604081016020820135600160201b8111156105a857600080fd5b8201836020820111156105ba57600080fd5b803590602001918460208302840111600160201b831117156105db57600080fd5b91935091506001600160a01b03813581169160208101359091169060400135611602565b34801561060b57600080fd5b50610188600480360360e081101561062257600080fd5b506001600160a01b038135811691602081013582169160408201359160608101359160808201359160a08101359091169060c001356119a2565b34801561066857600080fd5b506104cc611c9c565b34801561067d57600080fd5b506106f36004803603604081101561069457600080fd5b81359190810190604081016020820135600160201b8111156106b557600080fd5b8201836020820111156106c757600080fd5b803590602001918460208302840111600160201b831117156106e857600080fd5b509092509050611cc0565b60408051602080825283518183015283519192839290830191858101910280838360005b8381101561072f578181015183820152602001610717565b505050509050019250505060405180910390f35b34801561074f57600080fd5b50610188600480360361014081101561076757600080fd5b506001600160a01b0381358116916020810135916040820135916060810135916080820135169060a08101359060c081013515159060ff60e08201351690610100810135906101200135611d20565b3480156107c257600080fd5b506104cc600480360360408110156107d957600080fd5b506001600160a01b0381358116916020013516611e34565b6000808242811015610838576040805162461bcd60e51b81526020600482015260156024820152600080516020612dd8833981519152604482015290519081900360640190fd5b610867897f00000000000000000000000000000000000000000000000000000000000000008a8a8a308a6119a2565b9093509150610877898685611e6a565b7f00000000000000000000000000000000000000000000000000000000000000006001600160a01b0316632e1a7d4d836040518263ffffffff1660e01b815260040180828152602001915050600060405180830381600087803b1580156108dd57600080fd5b505af11580156108f1573d6000803e3d6000fd5b505050506108ff8583611fbe565b50965096945050505050565b600080600061093b7f00000000000000000000000000000000000000000000000000000000000000008f8f6120b6565b905060008761094a578c61094e565b6000195b6040805163d505accf60e01b815233600482015230602482015260448101839052606481018c905260ff8a16608482015260a4810189905260c4810188905290519192506001600160a01b0384169163d505accf9160e48082019260009290919082900301818387803b1580156109c457600080fd5b505af11580156109d8573d6000803e3d6000fd5b505050506109eb8f8f8f8f8f8f8f6119a2565b809450819550505050509b509b9950505050505050505050565b8042811015610a49576040805162461bcd60e51b81526020600482015260156024820152600080516020612dd8833981519152604482015290519081900360640190fd5b6001600160a01b037f00000000000000000000000000000000000000000000000000000000000000001686866000198101818110610a8357fe5b905060200201356001600160a01b03166001600160a01b031614610aee576040805162461bcd60e51b815260206004820152601a60248201527f417274687572526f757465723a20494e56414c49445f50415448000000000000604482015290519081900360640190fd5b610b7886866000818110610afe57fe5b905060200201356001600160a01b031633610b727f00000000000000000000000000000000000000000000000000000000000000008a8a6000818110610b4057fe5b905060200201356001600160a01b03168b8b6001818110610b5d57fe5b905060200201356001600160a01b03166120b6565b8b612176565b610bb88686808060200260200160405190810160405280939291908181526020018383602002808284376000920191909152503092508791506122d39050565b604080516370a0823160e01b815230600482015290516000916001600160a01b037f000000000000000000000000000000000000000000000000000000000000000016916370a0823191602480820192602092909190829003018186803b158015610c2257600080fd5b505afa158015610c36573d6000803e3d6000fd5b505050506040513d6020811015610c4c57600080fd5b5051905087811015610c8f5760405162461bcd60e51b8152600401808060200182810382526028815260200180612ef26028913960400191505060405180910390fd5b7f00000000000000000000000000000000000000000000000000000000000000006001600160a01b0316632e1a7d4d826040518263ffffffff1660e01b815260040180828152602001915050600060405180830381600087803b158015610cf557600080fd5b505af1158015610d09573d6000803e3d6000fd5b50505050610d178582611fbe565b505050505050505050565b60008060008442811015610d6b576040805162461bcd60e51b81526020600482015260156024820152600080516020612dd8833981519152604482015290519081900360640190fd5b610d7a8d8d8d8d8d8d8b612688565b90945092506000610dac7f00000000000000000000000000000000000000000000000000000000000000008f8f6120b6565b9050610dba8e338388612176565b610dc68d338387612176565b806001600160a01b0316636a627842896040518263ffffffff1660e01b815260040180826001600160a01b03166001600160a01b03168152602001915050602060405180830381600087803b158015610e1e57600080fd5b505af1158015610e32573d6000803e3d6000fd5b505050506040513d6020811015610e4857600080fd5b5051949e939d50939b50919950505050505050505050565b600080610eae7f00000000000000000000000000000000000000000000000000000000000000008d7f00000000000000000000000000000000000000000000000000000000000000006120b6565b9050600086610ebd578b610ec1565b6000195b6040805163d505accf60e01b815233600482015230602482015260448101839052606481018b905260ff8916608482015260a4810188905260c4810187905290519192506001600160a01b0384169163d505accf9160e48082019260009290919082900301818387803b158015610f3757600080fd5b505af1158015610f4b573d6000803e3d6000fd5b50505050610f5d8d8d8d8d8d8d611476565b9d9c50505050505050505050505050565b60008060008442811015610fb7576040805162461bcd60e51b81526020600482015260156024820152600080516020612dd8833981519152604482015290519081900360640190fd5b610fe68b7f00000000000000000000000000000000000000000000000000000000000000008c348d8d8b612688565b909450925060006110387f00000000000000000000000000000000000000000000000000000000000000008d7f00000000000000000000000000000000000000000000000000000000000000006120b6565b90506110468c338388612176565b7f00000000000000000000000000000000000000000000000000000000000000006001600160a01b031663d0e30db0856040518263ffffffff1660e01b81526004016000604051808303818588803b1580156110a157600080fd5b505af11580156110b5573d6000803e3d6000fd5b50505050507f00000000000000000000000000000000000000000000000000000000000000006001600160a01b031663a9059cbb82866040518363ffffffff1660e01b815260040180836001600160a01b03166001600160a01b0316815260200182815260200192505050602060405180830381600087803b15801561113a57600080fd5b505af115801561114e573d6000803e3d6000fd5b505050506040513d602081101561116457600080fd5b505161116c57fe5b806001600160a01b0316636a627842896040518263ffffffff1660e01b815260040180826001600160a01b03166001600160a01b03168152602001915050602060405180830381600087803b1580156111c457600080fd5b505af11580156111d8573d6000803e3d6000fd5b505050506040513d60208110156111ee57600080fd5b50519250348410156112065761120633853403611fbe565b50509750975097945050505050565b8042811015611259576040805162461bcd60e51b81526020600482015260156024820152600080516020612dd8833981519152604482015290519081900360640190fd5b61126986866000818110610afe57fe5b60008686600019810181811061127b57fe5b905060200201356001600160a01b03166001600160a01b03166370a08231866040518263ffffffff1660e01b815260040180826001600160a01b03166001600160a01b0316815260200191505060206040518083038186803b1580156112e057600080fd5b505afa1580156112f4573d6000803e3d6000fd5b505050506040513d602081101561130a57600080fd5b5051604080516020898102828101820190935289825292935061134e9290918a918a9182918501908490808284376000920191909152508992508891506122d39050565b87611400828989600019810181811061136357fe5b905060200201356001600160a01b03166001600160a01b03166370a08231896040518263ffffffff1660e01b815260040180826001600160a01b03166001600160a01b0316815260200191505060206040518083038186803b1580156113c857600080fd5b505afa1580156113dc573d6000803e3d6000fd5b505050506040513d60208110156113f257600080fd5b50519063ffffffff61290416565b1015610d175760405162461bcd60e51b8152600401808060200182810382526028815260200180612ef26028913960400191505060405180910390fd5b7f000000000000000000000000000000000000000000000000000000000000000081565b600061146e848484612954565b949350505050565b600081428110156114bc576040805162461bcd60e51b81526020600482015260156024820152600080516020612dd8833981519152604482015290519081900360640190fd5b6114eb887f000000000000000000000000000000000000000000000000000000000000000089898930896119a2565b604080516370a0823160e01b8152306004820152905191945061156f92508a9187916001600160a01b038416916370a0823191602480820192602092909190829003018186803b15801561153e57600080fd5b505afa158015611552573d6000803e3d6000fd5b505050506040513d602081101561156857600080fd5b5051611e6a565b7f00000000000000000000000000000000000000000000000000000000000000006001600160a01b0316632e1a7d4d836040518263ffffffff1660e01b815260040180828152602001915050600060405180830381600087803b1580156115d557600080fd5b505af11580156115e9573d6000803e3d6000fd5b505050506115f78483611fbe565b509695505050505050565b8042811015611646576040805162461bcd60e51b81526020600482015260156024820152600080516020612dd8833981519152604482015290519081900360640190fd5b7f00000000000000000000000000000000000000000000000000000000000000006001600160a01b03168686600081811061167d57fe5b905060200201356001600160a01b03166001600160a01b0316146116e8576040805162461bcd60e51b815260206004820152601a60248201527f417274687572526f757465723a20494e56414c49445f50415448000000000000604482015290519081900360640190fd5b60003490507f00000000000000000000000000000000000000000000000000000000000000006001600160a01b031663d0e30db0826040518263ffffffff1660e01b81526004016000604051808303818588803b15801561174857600080fd5b505af115801561175c573d6000803e3d6000fd5b50505050507f00000000000000000000000000000000000000000000000000000000000000006001600160a01b031663a9059cbb6117c17f00000000000000000000000000000000000000000000000000000000000000008a8a6000818110610b4057fe5b836040518363ffffffff1660e01b815260040180836001600160a01b03166001600160a01b0316815260200182815260200192505050602060405180830381600087803b15801561181157600080fd5b505af1158015611825573d6000803e3d6000fd5b505050506040513d602081101561183b57600080fd5b505161184357fe5b60008787600019810181811061185557fe5b905060200201356001600160a01b03166001600160a01b03166370a08231876040518263ffffffff1660e01b815260040180826001600160a01b03166001600160a01b0316815260200191505060206040518083038186803b1580156118ba57600080fd5b505afa1580156118ce573d6000803e3d6000fd5b505050506040513d60208110156118e457600080fd5b50516040805160208a810282810182019093528a82529293506119289290918b918b9182918501908490808284376000920191909152508a92508991506122d39050565b88611400828a8a600019810181811061193d57fe5b905060200201356001600160a01b03166001600160a01b03166370a082318a6040518263ffffffff1660e01b815260040180826001600160a01b03166001600160a01b0316815260200191505060206040518083038186803b1580156113c857600080fd5b60008082428110156119e9576040805162461bcd60e51b81526020600482015260156024820152600080516020612dd8833981519152604482015290519081900360640190fd5b6000611a167f00000000000000000000000000000000000000000000000000000000000000008c8c6120b6565b9050806001600160a01b031663d085835a6040518163ffffffff1660e01b815260040160206040518083038186803b158015611a5157600080fd5b505afa158015611a65573d6000803e3d6000fd5b505050506040513d6020811015611a7b57600080fd5b5051421015611ad1576040805162461bcd60e51b815260206004820152601f60248201527f417274687572526f757465723a20494e56414c49445f54494d455f4c4f434b00604482015290519081900360640190fd5b604080516323b872dd60e01b81523360048201526001600160a01b03831660248201819052604482018c905291516323b872dd916064808201926020929091908290030181600087803b158015611b2757600080fd5b505af1158015611b3b573d6000803e3d6000fd5b505050506040513d6020811015611b5157600080fd5b50506040805163226bf2d160e21b81526001600160a01b03888116600483015282516000938493928616926389afcb44926024808301939282900301818787803b158015611b9e57600080fd5b505af1158015611bb2573d6000803e3d6000fd5b505050506040513d6040811015611bc857600080fd5b50805160209091015190925090506000611be28e8e612a00565b509050806001600160a01b03168e6001600160a01b031614611c05578183611c08565b82825b90975095508a871015611c4c5760405162461bcd60e51b8152600401808060200182810382526023815260200180612df86023913960400191505060405180910390fd5b89861015611c8b5760405162461bcd60e51b8152600401808060200182810382526023815260200180612f1a6023913960400191505060405180910390fd5b505050505097509795505050505050565b7f000000000000000000000000000000000000000000000000000000000000000081565b606061146e7f000000000000000000000000000000000000000000000000000000000000000085858580806020026020016040519081016040528093929190818152602001838360200280828437600092019190915250612ade92505050565b6000806000611d707f00000000000000000000000000000000000000000000000000000000000000008e7f00000000000000000000000000000000000000000000000000000000000000006120b6565b9050600087611d7f578c611d83565b6000195b6040805163d505accf60e01b815233600482015230602482015260448101839052606481018c905260ff8a16608482015260a4810189905260c4810188905290519192506001600160a01b0384169163d505accf9160e48082019260009290919082900301818387803b158015611df957600080fd5b505af1158015611e0d573d6000803e3d6000fd5b50505050611e1f8e8e8e8e8e8e6107f1565b909f909e509c50505050505050505050505050565b6000611e617f000000000000000000000000000000000000000000000000000000000000000084846120b6565b90505b92915050565b604080516001600160a01b038481166024830152604480830185905283518084039091018152606490920183526020820180516001600160e01b031663a9059cbb60e01b178152925182516000946060949389169392918291908083835b60208310611ee75780518252601f199092019160209182019101611ec8565b6001836020036101000a0380198251168184511680821785525050505050509050019150506000604051808303816000865af19150503d8060008114611f49576040519150601f19603f3d011682016040523d82523d6000602084013e611f4e565b606091505b5091509150818015611f7c575080511580611f7c5750808060200190516020811015611f7957600080fd5b50515b611fb75760405162461bcd60e51b815260040180806020018281038252602d815260200180612f3d602d913960400191505060405180910390fd5b5050505050565b604080516000808252602082019092526001600160a01b0384169083906040518082805190602001908083835b6020831061200a5780518252601f199092019160209182019101611feb565b6001836020036101000a03801982511681845116808217855250505050505090500191505060006040518083038185875af1925050503d806000811461206c576040519150601f19603f3d011682016040523d82523d6000602084013e612071565b606091505b50509050806120b15760405162461bcd60e51b8152600401808060200182810382526034815260200180612e4c6034913960400191505060405180910390fd5b505050565b60008060006120c58585612a00565b604080516bffffffffffffffffffffffff19606094851b811660208084019190915293851b81166034830152825160288184030181526048830184528051908501206001600160f81b031960688401529a90941b9093166069840152607d8301989098527f955a54ed04c24613e6a2bf2cd838dbaec04e1a74cfec0b8eddc61c5976e55b1f609d808401919091528851808403909101815260bd909201909752805196019590952095945050505050565b604080516001600160a01b0385811660248301528481166044830152606480830185905283518084039091018152608490920183526020820180516001600160e01b03166323b872dd60e01b17815292518251600094606094938a169392918291908083835b602083106121fb5780518252601f1990920191602091820191016121dc565b6001836020036101000a0380198251168184511680821785525050505050509050019150506000604051808303816000865af19150503d806000811461225d576040519150601f19603f3d011682016040523d82523d6000602084013e612262565b606091505b5091509150818015612290575080511580612290575080806020019051602081101561228d57600080fd5b50515b6122cb5760405162461bcd60e51b8152600401808060200182810382526031815260200180612e1b6031913960400191505060405180910390fd5b505050505050565b60005b6001845103811015612682576000808583815181106122f157fe5b602002602001015186846001018151811061230857fe5b60200260200101519150915060006123208383612a00565b50905060006123507f000000000000000000000000000000000000000000000000000000000000000085856120b6565b90506000806000836001600160a01b0316630902f1ac6040518163ffffffff1660e01b815260040160806040518083038186803b15801561239057600080fd5b505afa1580156123a4573d6000803e3d6000fd5b505050506040513d60808110156123ba57600080fd5b5080516020909101516001600160701b0391821693501690506001600160a01b03878116908616146123e857905b600061244483896001600160a01b03166370a08231886040518263ffffffff1660e01b815260040180826001600160a01b03166001600160a01b0316815260200191505060206040518083038186803b1580156113c857600080fd5b9050846001600160a01b031663f140a35a828a6040518363ffffffff1660e01b815260040180838152602001826001600160a01b03166001600160a01b031681526020019250505060206040518083038186803b1580156124a457600080fd5b505afa1580156124b8573d6000803e3d6000fd5b505050506040513d60208110156124ce57600080fd5b5051935060009250829150506001600160a01b03878116908616146124f5578260006124f9565b6000835b91509150600060028c51038910612510578a612551565b6125517f0000000000000000000000000000000000000000000000000000000000000000888e8c6002018151811061254457fe5b60200260200101516120b6565b604080516000808252602082019092529192506001600160a01b03871691636e1fdd7f9186918691869190508f6040518663ffffffff1660e01b815260040180868152602001858152602001846001600160a01b03166001600160a01b0316815260200180602001836001600160a01b03166001600160a01b03168152602001828103825284818151815260200191508051906020019080838360005b838110156126065781810151838201526020016125ee565b50505050905090810190601f1680156126335780820380516001836020036101000a031916815260200191505b509650505050505050600060405180830381600087803b15801561265657600080fd5b505af115801561266a573d6000803e3d6000fd5b50506001909a0199506122d698505050505050505050565b50505050565b6040805163e6a4390560e01b81526001600160a01b03898116600483015288811660248301529151600092839283927f00000000000000000000000000000000000000000000000000000000000000009092169163e6a4390591604480820192602092909190829003018186803b15801561270257600080fd5b505afa158015612716573d6000803e3d6000fd5b505050506040513d602081101561272c57600080fd5b50516001600160a01b031614156127e65760408051631ad8034760e21b81526001600160a01b038b811660048301528a811660248301526044820186905291517f000000000000000000000000000000000000000000000000000000000000000090921691636b600d1c916064808201926020929091908290030181600087803b1580156127b957600080fd5b505af11580156127cd573d6000803e3d6000fd5b505050506040513d60208110156127e357600080fd5b50505b6000806128147f00000000000000000000000000000000000000000000000000000000000000008c8c612cad565b91509150816000148015612826575080155b15612836578893508792506128f6565b60006128438a8484612954565b9050888111612896578681101561288b5760405162461bcd60e51b8152600401808060200182810382526023815260200180612f1a6023913960400191505060405180910390fd5b8994509250826128f4565b60006128a38a8486612954565b90508a8111156128af57fe5b888110156128ee5760405162461bcd60e51b8152600401808060200182810382526023815260200180612df86023913960400191505060405180910390fd5b94508893505b505b505097509795505050505050565b80820382811115611e64576040805162461bcd60e51b815260206004820152601560248201527464732d6d6174682d7375622d756e646572666c6f7760581b604482015290519081900360640190fd5b60008084116129945760405162461bcd60e51b8152600401808060200182810382526025815260200180612ecd6025913960400191505060405180910390fd5b6000831180156129a45750600082115b6129df5760405162461bcd60e51b8152600401808060200182810382526028815260200180612ea56028913960400191505060405180910390fd5b826129f0858463ffffffff612d7416565b816129f757fe5b04949350505050565b600080826001600160a01b0316846001600160a01b03161415612a545760405162461bcd60e51b8152600401808060200182810382526025815260200180612e806025913960400191505060405180910390fd5b826001600160a01b0316846001600160a01b031610612a74578284612a77565b83835b90925090506001600160a01b038216612ad7576040805162461bcd60e51b815260206004820152601e60248201527f556e697377617056324c6962726172793a205a45524f5f414444524553530000604482015290519081900360640190fd5b9250929050565b6060600282511015612b37576040805162461bcd60e51b815260206004820152601e60248201527f556e697377617056324c6962726172793a20494e56414c49445f504154480000604482015290519081900360640190fd5b815167ffffffffffffffff81118015612b4f57600080fd5b50604051908082528060200260200182016040528015612b79578160200160208202803683370190505b5090508281600081518110612b8a57fe5b60200260200101818152505060005b6001835103811015612ca5576000612bce86858481518110612bb757fe5b602002602001015186856001018151811061254457fe5b9050806001600160a01b031663f140a35a848481518110612beb57fe5b6020026020010151868581518110612bff57fe5b60200260200101516040518363ffffffff1660e01b815260040180838152602001826001600160a01b03166001600160a01b031681526020019250505060206040518083038186803b158015612c5457600080fd5b505afa158015612c68573d6000803e3d6000fd5b505050506040513d6020811015612c7e57600080fd5b50518351849060018501908110612c9157fe5b602090810291909101015250600101612b99565b509392505050565b6000806000612cbc8585612a00565b509050600080612ccd8888886120b6565b6001600160a01b0316630902f1ac6040518163ffffffff1660e01b815260040160806040518083038186803b158015612d0557600080fd5b505afa158015612d19573d6000803e3d6000fd5b505050506040513d6080811015612d2f57600080fd5b5080516020909101516001600160701b0391821693501690506001600160a01b0387811690841614612d62578082612d65565b81815b90999098509650505050505050565b6000811580612d8f57505080820282828281612d8c57fe5b04145b611e64576040805162461bcd60e51b815260206004820152601460248201527364732d6d6174682d6d756c2d6f766572666c6f7760601b604482015290519081900360640190fdfe417274687572526f757465723a20455850495245440000000000000000000000417274687572526f757465723a20494e53554646494349454e545f415f414d4f554e545472616e7366657248656c7065723a3a7472616e7366657246726f6d3a207472616e7366657246726f6d206661696c65645472616e7366657248656c7065723a3a736166655472616e736665724554483a20455448207472616e73666572206661696c6564556e697377617056324c6962726172793a204944454e544943414c5f414444524553534553556e697377617056324c6962726172793a20494e53554646494349454e545f4c4951554944495459556e697377617056324c6962726172793a20494e53554646494349454e545f414d4f554e54417274687572526f757465723a20494e53554646494349454e545f4f55545055545f414d4f554e54417274687572526f757465723a20494e53554646494349454e545f425f414d4f554e545472616e7366657248656c7065723a3a736166655472616e736665723a207472616e73666572206661696c6564a26469706673582212204e85a21a0e6cdec8e880069b19a1363b4cb66ee6a527bd21a0f65c32d9bb451f64736f6c63430006060033",
  "linkReferences": {},
  "deployedLinkReferences": {}
}