{
    "_format": "hh-sol-artifact-1",
    "contractName": "ArthurFactory",
    "sourceName": "contracts/ArthurFactory.sol",
    "abi": [
        {
            "inputs": [
                {
                    "internalType": "address",
                    "name": "feeTo_",
                    "type": "address"
                }
            ],
            "payable": false,
            "stateMutability": "nonpayable",
            "type": "constructor"
        },
        {
            "anonymous": false,
            "inputs": [
                {
                    "indexed": true,
                    "internalType": "address",
                    "name": "prevOwner",
                    "type": "address"
                },
                {
                    "indexed": true,
                    "internalType": "address",
                    "name": "newOwner",
                    "type": "address"
                }
            ],
            "name": "FeePercentOwnershipTransferred",
            "type": "event"
        },
        {
            "anonymous": false,
            "inputs": [
                {
                    "indexed": true,
                    "internalType": "address",
                    "name": "prevFeeTo",
                    "type": "address"
                },
                {
                    "indexed": true,
                    "internalType": "address",
                    "name": "newFeeTo",
                    "type": "address"
                }
            ],
            "name": "FeeToTransferred",
            "type": "event"
        },
        {
            "anonymous": false,
            "inputs": [
                {
                    "indexed": false,
                    "internalType": "uint256",
                    "name": "prevOwnerFeeShare",
                    "type": "uint256"
                },
                {
                    "indexed": false,
                    "internalType": "uint256",
                    "name": "ownerFeeShare",
                    "type": "uint256"
                }
            ],
            "name": "OwnerFeeShareUpdated",
            "type": "event"
        },
        {
            "anonymous": false,
            "inputs": [
                {
                    "indexed": true,
                    "internalType": "address",
                    "name": "prevOwner",
                    "type": "address"
                },
                {
                    "indexed": true,
                    "internalType": "address",
                    "name": "newOwner",
                    "type": "address"
                }
            ],
            "name": "OwnershipTransferred",
            "type": "event"
        },
        {
            "anonymous": false,
            "inputs": [
                {
                    "indexed": true,
                    "internalType": "address",
                    "name": "token0",
                    "type": "address"
                },
                {
                    "indexed": true,
                    "internalType": "address",
                    "name": "token1",
                    "type": "address"
                },
                {
                    "indexed": false,
                    "internalType": "address",
                    "name": "pair",
                    "type": "address"
                },
                {
                    "indexed": false,
                    "internalType": "uint256",
                    "name": "length",
                    "type": "uint256"
                }
            ],
            "name": "PairCreated",
            "type": "event"
        },
        {
            "anonymous": false,
            "inputs": [
                {
                    "indexed": false,
                    "internalType": "address",
                    "name": "referrer",
                    "type": "address"
                },
                {
                    "indexed": false,
                    "internalType": "uint256",
                    "name": "prevReferrerFeeShare",
                    "type": "uint256"
                },
                {
                    "indexed": false,
                    "internalType": "uint256",
                    "name": "referrerFeeShare",
                    "type": "uint256"
                }
            ],
            "name": "ReferrerFeeShareUpdated",
            "type": "event"
        },
        {
            "anonymous": false,
            "inputs": [
                {
                    "indexed": true,
                    "internalType": "address",
                    "name": "prevOwner",
                    "type": "address"
                },
                {
                    "indexed": true,
                    "internalType": "address",
                    "name": "newOwner",
                    "type": "address"
                }
            ],
            "name": "SetStableOwnershipTransferred",
            "type": "event"
        },
        {
            "constant": true,
            "inputs": [],
            "name": "OWNER_FEE_SHARE_MAX",
            "outputs": [
                {
                    "internalType": "uint256",
                    "name": "",
                    "type": "uint256"
                }
            ],
            "payable": false,
            "stateMutability": "view",
            "type": "function"
        },
        {
            "constant": true,
            "inputs": [],
            "name": "REFERER_FEE_SHARE_MAX",
            "outputs": [
                {
                    "internalType": "uint256",
                    "name": "",
                    "type": "uint256"
                }
            ],
            "payable": false,
            "stateMutability": "view",
            "type": "function"
        },
        {
            "constant": true,
            "inputs": [
                {
                    "internalType": "uint256",
                    "name": "",
                    "type": "uint256"
                }
            ],
            "name": "allPairs",
            "outputs": [
                {
                    "internalType": "address",
                    "name": "",
                    "type": "address"
                }
            ],
            "payable": false,
            "stateMutability": "view",
            "type": "function"
        },
        {
            "constant": true,
            "inputs": [],
            "name": "allPairsLength",
            "outputs": [
                {
                    "internalType": "uint256",
                    "name": "",
                    "type": "uint256"
                }
            ],
            "payable": false,
            "stateMutability": "view",
            "type": "function"
        },
        {
            "constant": false,
            "inputs": [
                {
                    "internalType": "address",
                    "name": "tokenA",
                    "type": "address"
                },
                {
                    "internalType": "address",
                    "name": "tokenB",
                    "type": "address"
                },
                {
                    "internalType": "uint256",
                    "name": "timeLock",
                    "type": "uint256"
                }
            ],
            "name": "createPair",
            "outputs": [
                {
                    "internalType": "address",
                    "name": "pair",
                    "type": "address"
                }
            ],
            "payable": false,
            "stateMutability": "nonpayable",
            "type": "function"
        },
        {
            "constant": true,
            "inputs": [],
            "name": "feeInfo",
            "outputs": [
                {
                    "internalType": "uint256",
                    "name": "_ownerFeeShare",
                    "type": "uint256"
                },
                {
                    "internalType": "address",
                    "name": "_feeTo",
                    "type": "address"
                }
            ],
            "payable": false,
            "stateMutability": "view",
            "type": "function"
        },
        {
            "constant": true,
            "inputs": [],
            "name": "feePercentOwner",
            "outputs": [
                {
                    "internalType": "address",
                    "name": "",
                    "type": "address"
                }
            ],
            "payable": false,
            "stateMutability": "view",
            "type": "function"
        },
        {
            "constant": true,
            "inputs": [],
            "name": "feeTo",
            "outputs": [
                {
                    "internalType": "address",
                    "name": "",
                    "type": "address"
                }
            ],
            "payable": false,
            "stateMutability": "view",
            "type": "function"
        },
        {
            "constant": true,
            "inputs": [
                {
                    "internalType": "address",
                    "name": "",
                    "type": "address"
                },
                {
                    "internalType": "address",
                    "name": "",
                    "type": "address"
                }
            ],
            "name": "getPair",
            "outputs": [
                {
                    "internalType": "address",
                    "name": "",
                    "type": "address"
                }
            ],
            "payable": false,
            "stateMutability": "view",
            "type": "function"
        },
        {
            "constant": true,
            "inputs": [],
            "name": "owner",
            "outputs": [
                {
                    "internalType": "address",
                    "name": "",
                    "type": "address"
                }
            ],
            "payable": false,
            "stateMutability": "view",
            "type": "function"
        },
        {
            "constant": true,
            "inputs": [],
            "name": "ownerFeeShare",
            "outputs": [
                {
                    "internalType": "uint256",
                    "name": "",
                    "type": "uint256"
                }
            ],
            "payable": false,
            "stateMutability": "view",
            "type": "function"
        },
        {
            "constant": true,
            "inputs": [
                {
                    "internalType": "address",
                    "name": "",
                    "type": "address"
                }
            ],
            "name": "referrersFeeShare",
            "outputs": [
                {
                    "internalType": "uint256",
                    "name": "",
                    "type": "uint256"
                }
            ],
            "payable": false,
            "stateMutability": "view",
            "type": "function"
        },
        {
            "constant": false,
            "inputs": [
                {
                    "internalType": "address",
                    "name": "_feePercentOwner",
                    "type": "address"
                }
            ],
            "name": "setFeePercentOwner",
            "outputs": [],
            "payable": false,
            "stateMutability": "nonpayable",
            "type": "function"
        },
        {
            "constant": false,
            "inputs": [
                {
                    "internalType": "address",
                    "name": "_feeTo",
                    "type": "address"
                }
            ],
            "name": "setFeeTo",
            "outputs": [],
            "payable": false,
            "stateMutability": "nonpayable",
            "type": "function"
        },
        {
            "constant": false,
            "inputs": [
                {
                    "internalType": "address",
                    "name": "_owner",
                    "type": "address"
                }
            ],
            "name": "setOwner",
            "outputs": [],
            "payable": false,
            "stateMutability": "nonpayable",
            "type": "function"
        },
        {
            "constant": false,
            "inputs": [
                {
                    "internalType": "uint256",
                    "name": "newOwnerFeeShare",
                    "type": "uint256"
                }
            ],
            "name": "setOwnerFeeShare",
            "outputs": [],
            "payable": false,
            "stateMutability": "nonpayable",
            "type": "function"
        },
        {
            "constant": false,
            "inputs": [
                {
                    "internalType": "address",
                    "name": "referrer",
                    "type": "address"
                },
                {
                    "internalType": "uint256",
                    "name": "referrerFeeShare",
                    "type": "uint256"
                }
            ],
            "name": "setReferrerFeeShare",
            "outputs": [],
            "payable": false,
            "stateMutability": "nonpayable",
            "type": "function"
        },
        {
            "constant": false,
            "inputs": [
                {
                    "internalType": "address",
                    "name": "_setStableOwner",
                    "type": "address"
                }
            ],
            "name": "setSetStableOwner",
            "outputs": [],
            "payable": false,
            "stateMutability": "nonpayable",
            "type": "function"
        },
        {
            "constant": true,
            "inputs": [],
            "name": "setStableOwner",
            "outputs": [
                {
                    "internalType": "address",
                    "name": "",
                    "type": "address"
                }
            ],
            "payable": false,
            "stateMutability": "view",
            "type": "function"
        }
    ],
    "bytecode": "0x608060405261c35060045534801561001657600080fd5b50604051614eac380380614eac8339818101604052602081101561003957600080fd5b505160008054336001600160a01b0319918216811783556001805483168217905560028054831682179055600380549092166001600160a01b038516179091556040519091907f8be0079c531659141344cd1fd0a4f28419497f9722a3daafe3b4186f6b6457e0908290a360405133906000907ff14fcb76f5835c1d416cc224ffc209c65749cede0d23fd6e6035d4dd1c2e0f8c908290a360405133906000907fabdd76bd5d5532d19d3e93704ac3544f45f03dc956b39995d3436d2d166855e5908290a36040516001600160a01b038216906000907f941bed5eb8a4f7abb41f1a8547c6b5fded98a6fbe47dbd60aee080690de5f0d5908290a350614d68806101446000396000f3fe608060405234801561001057600080fd5b50600436106101215760003560e01c80638692fa7d116100ad578063c1cf3c7f11610071578063c1cf3c7f14610299578063e6a43905146102c5578063e93f6585146102f3578063f46901ed14610319578063fc39026a1461033f57610121565b80638692fa7d1461021d5780638da5cb5b1461024357806390fd06871461024b57806391b8317814610253578063995b5aae1461027057610121565b80634c217715116100f45780634c217715146101a9578063574f2ba3146101b157806369c8b572146101b95780636b600d1c146101c15780637183d47c146101f757610121565b8063017e7e581461012657806313af40351461014a5780631850bd76146101725780631e3dd18b1461018c575b600080fd5b61012e610347565b604080516001600160a01b039092168252519081900360200190f35b6101706004803603602081101561016057600080fd5b50356001600160a01b0316610356565b005b61017a610443565b60408051918252519081900360200190f35b61012e600480360360208110156101a257600080fd5b5035610449565b61012e610470565b61017a61047f565b61017a610485565b61012e600480360360608110156101d757600080fd5b506001600160a01b0381358116916020810135909116906040013561048b565b61017a6004803603602081101561020d57600080fd5b50356001600160a01b0316610807565b6101706004803603602081101561023357600080fd5b50356001600160a01b0316610819565b61012e610907565b61017a610916565b6101706004803603602081101561026957600080fd5b503561091d565b610278610a29565b604080519283526001600160a01b0390911660208301528051918290030190f35b610170600480360360408110156102af57600080fd5b506001600160a01b038135169060200135610a3f565b61012e600480360360408110156102db57600080fd5b506001600160a01b0381358116916020013516610b85565b6101706004803603602081101561030957600080fd5b50356001600160a01b0316610bab565b6101706004803603602081101561032f57600080fd5b50356001600160a01b0316610c99565b61012e610d3e565b6003546001600160a01b031681565b6000546001600160a01b0316331461039f5760405162461bcd60e51b8152600401808060200182810382526026815260200180614c456026913960400191505060405180910390fd5b6001600160a01b0381166103e8576040805162461bcd60e51b815260206004820152601b6024820152600080516020614c8d833981519152604482015290519081900360640190fd5b600080546040516001600160a01b03808516939216917f8be0079c531659141344cd1fd0a4f28419497f9722a3daafe3b4186f6b6457e091a3600080546001600160a01b0319166001600160a01b0392909216919091179055565b614e2081565b6007818154811061045657fe5b6000918252602090912001546001600160a01b0316905081565b6001546001600160a01b031681565b60075490565b60045481565b6000826001600160a01b0316846001600160a01b031614156104de5760405162461bcd60e51b8152600401808060200182810382526022815260200180614c6b6022913960400191505060405180910390fd5b600080846001600160a01b0316866001600160a01b031610610501578486610504565b85855b90925090506001600160a01b038216610564576040805162461bcd60e51b815260206004820152601b60248201527f417274687572466163746f72793a205a45524f5f414444524553530000000000604482015290519081900360640190fd5b6001600160a01b038281166000908152600660209081526040808320858516845290915290205416156105de576040805162461bcd60e51b815260206004820152601a60248201527f417274687572466163746f72793a20504149525f455849535453000000000000604482015290519081900360640190fd5b6060604051806020016105f090610d4d565b6020820181038252601f19601f8201166040525090506000838360405160200180836001600160a01b03166001600160a01b031660601b8152601401826001600160a01b03166001600160a01b031660601b815260140192505050604051602081830303815290604052805190602001209050808251602084016000f594506001600160a01b0385166106c2576040805162461bcd60e51b8152602060048201526015602482015274105c9d1a1d5c919858dd1bdc9e4e88119052531151605a1b604482015290519081900360640190fd5b604080516305e52ecf60e21b81526001600160a01b038681166004830152858116602483015260448201899052915191871691631794bb3c9160648082019260009290919082900301818387803b15801561071c57600080fd5b505af1158015610730573d6000803e3d6000fd5b505050506001600160a01b0384811660008181526006602081815260408084208987168086529083528185208054978d166001600160a01b031998891681179091559383528185208686528352818520805488168517905560078054600181018255958190527fa66cc928b5edb82af9bd49922954155ab7b0942694bea4ce44661d9a8736c68890950180549097168417909655925483519283529082015281517f0d3648bd0f6ba80134a33ba9275ac585d9d315f0ad8355cddefde31afa28d0e9929181900390910190a3505050509392505050565b60056020526000908152604090205481565b6002546001600160a01b031633146108625760405162461bcd60e51b8152600401808060200182810382526021815260200180614d136021913960400191505060405180910390fd5b6001600160a01b0381166108ab576040805162461bcd60e51b815260206004820152601b6024820152600080516020614c8d833981519152604482015290519081900360640190fd5b6002546040516001600160a01b038084169216907fabdd76bd5d5532d19d3e93704ac3544f45f03dc956b39995d3436d2d166855e590600090a3600280546001600160a01b0319166001600160a01b0392909216919091179055565b6000546001600160a01b031681565b620186a081565b6000546001600160a01b031633146109665760405162461bcd60e51b8152600401808060200182810382526026815260200180614c456026913960400191505060405180910390fd5b600081116109a55760405162461bcd60e51b8152600401808060200182810382526033815260200180614ce06033913960400191505060405180910390fd5b620186a08111156109e75760405162461bcd60e51b8152600401808060200182810382526033815260200180614cad6033913960400191505060405180910390fd5b600454604080519182526020820183905280517fd739f5afb7778b0c4f4e62b13ac0a94ccc1556dbcb8dc2d0b907daed378e1e239281900390910190a1600455565b60045460035490916001600160a01b0390911690565b6000546001600160a01b03163314610a885760405162461bcd60e51b8152600401808060200182810382526026815260200180614c456026913960400191505060405180910390fd5b6001600160a01b038216610ad1576040805162461bcd60e51b815260206004820152601b6024820152600080516020614c8d833981519152604482015290519081900360640190fd5b614e20811115610b125760405162461bcd60e51b8152600401808060200182810382526036815260200180614c0f6036913960400191505060405180910390fd5b6001600160a01b03821660008181526005602090815260409182902054825193845290830152818101839052517f4deb2bb31aaa8475916c8556f3e3287795da71076b7419d627eeef223b7dcc589181900360600190a16001600160a01b03909116600090815260056020526040902055565b60066020908152600092835260408084209091529082529020546001600160a01b031681565b6000546001600160a01b03163314610bf45760405162461bcd60e51b8152600401808060200182810382526026815260200180614c456026913960400191505060405180910390fd5b6001600160a01b038116610c3d576040805162461bcd60e51b815260206004820152601b6024820152600080516020614c8d833981519152604482015290519081900360640190fd5b6001546040516001600160a01b038084169216907ff14fcb76f5835c1d416cc224ffc209c65749cede0d23fd6e6035d4dd1c2e0f8c90600090a3600180546001600160a01b0319166001600160a01b0392909216919091179055565b6000546001600160a01b03163314610ce25760405162461bcd60e51b8152600401808060200182810382526026815260200180614c456026913960400191505060405180910390fd5b6003546040516001600160a01b038084169216907f941bed5eb8a4f7abb41f1a8547c6b5fded98a6fbe47dbd60aee080690de5f0d590600090a3600380546001600160a01b0319166001600160a01b0392909216919091179055565b6002546001600160a01b031681565b613eb480610d5b8339019056fe60806040526008805461ffff60e01b1916604b60e21b176001600160f01b0316604b60f21b1790556001600e5534801561003857600080fd5b506040514690806052613e62823960408051918290036052018220828201825260098352680417274687572204c560bc1b6020938401528151808301835260018152603160f81b908401528151808401919091527f0e27287c8a23f01bdaa9d0ef4f1300b5eb160684bbf13ded77a23fa3b18457d2818301527fc89efdaa54c0f20c7adf612882df0950f5a951637e0307cdcb4c672f298b8bc6606082015260808101949094523060a0808601919091528151808603909101815260c09094019052825192019190912060035550600580546001600160a01b03191633179055613d3b806101276000396000f3fe608060405234801561001057600080fd5b506004361061025e5760003560e01c80636e1fdd7f11610146578063bc25cf77116100c3578063d73792a911610087578063d73792a91461079b578063dd62ed3e146107a3578063ed8d6a23146107d1578063f140a35a146107ee578063f39ac11f1461081a578063fff6cae9146108485761025e565b8063bc25cf771461070c578063c45a015514610732578063d085835a1461073a578063d21220a714610742578063d505accf1461074a5761025e565b806395d89b411161010a57806395d89b41146106c05780639e548b7f146106c8578063a9059cbb146106d0578063b6200b07146106fc578063ba9a7a56146107045761025e565b80636e1fdd7f1461059857806370a082311461062d5780637464fc3d146106535780637ecebe001461065b57806389afcb44146106815761025e565b80632fcd1692116101df5780633b9f1dc0116101a35780633b9f1dc0146105295780633ba170771461053157806348e5d2601461053957806362ecec031461056257806367d817401461056a5780636a627842146105725761025e565b80632fcd1692146104a65780633029e5d4146104c557806330adf81f146104fb578063313ce567146105035780633644e515146105215761025e565b8063158ef93e11610226578063158ef93e146104105780631794bb3c1461041857806318160ddd1461044e57806323b872dd14610468578063288e5d021461049e5761025e565b8063022c0d9f1461026357806306fdde03146102f15780630902f1ac1461036e578063095ea7b3146103ac5780630dfe1681146103ec575b600080fd5b6102ef6004803603608081101561027957600080fd5b8135916020810135916001600160a01b0360408301351691908101906080810160608201356401000000008111156102b057600080fd5b8201836020820111156102c257600080fd5b803590602001918460018302840111640100000000831117156102e457600080fd5b509092509050610850565b005b6102f96108f1565b6040805160208082528351818301528351919283929083019185019080838360005b8381101561033357818101518382015260200161031b565b50505050905090810190601f1680156103605780820380516001836020036101000a031916815260200191505b509250505060405180910390f35b610376610916565b604080516001600160701b03958616815293909416602084015261ffff9182168385015216606082015290519081900360800190f35b6103d8600480360360408110156103c257600080fd5b506001600160a01b038135169060200135610949565b604080519115158252519081900360200190f35b6103f4610960565b604080516001600160a01b039092168252519081900360200190f35b6103d861096f565b6102ef6004803603606081101561042e57600080fd5b506001600160a01b0381358116916020810135909116906040013561097f565b610456610b15565b60408051918252519081900360200190f35b6103d86004803603606081101561047e57600080fd5b506001600160a01b03813581169160208101359091169060400135610b1b565b610456610bf2565b6104ae610bf8565b6040805161ffff9092168252519081900360200190f35b6102ef600480360360608110156104db57600080fd5b5080351515906001600160701b0360208201358116916040013516610c09565b610456610eea565b61050b610f0e565b6040805160ff9092168252519081900360200190f35b610456610f13565b610456610f19565b6102ef610f1f565b6102ef6004803603604081101561054f57600080fd5b5061ffff813581169160200135166110d2565b6104ae6112f7565b610456611308565b6104566004803603602081101561058857600080fd5b50356001600160a01b031661130e565b6102ef600480360360a08110156105ae57600080fd5b8135916020810135916001600160a01b0360408301351691908101906080810160608201356401000000008111156105e557600080fd5b8201836020820111156105f757600080fd5b8035906020019184600183028401116401000000008311171561061957600080fd5b9193509150356001600160a01b031661160d565b6104566004803603602081101561064357600080fd5b50356001600160a01b03166116b1565b6104566116c3565b6104566004803603602081101561067157600080fd5b50356001600160a01b03166116c9565b6106a76004803603602081101561069757600080fd5b50356001600160a01b03166116db565b6040805192835260208301919091528051918290030190f35b6102f9611acb565b6103d8611aec565b6103d8600480360360408110156106e657600080fd5b506001600160a01b038135169060200135611af5565b6103d8611b02565b610456611b10565b6102ef6004803603602081101561072257600080fd5b50356001600160a01b0316611b16565b6103f4611ca4565b610456611cb3565b6103f4611cb9565b6102ef600480360360e081101561076057600080fd5b506001600160a01b03813581169160208101359091169060408101359060608101359060ff6080820135169060a08101359060c00135611cc8565b610456611eca565b610456600480360360408110156107b957600080fd5b506001600160a01b0381358116916020013516611ed1565b6102ef600480360360208110156107e757600080fd5b5035611eee565b6104566004803603604081101561080457600080fd5b50803590602001356001600160a01b03166120a6565b6102ef6004803603604081101561083057600080fd5b506001600160a01b0381358116916020013516612116565b6102ef612380565b610858613af1565b5060408051610100810182526006546001600160a01b039081168252600754166020808301919091528183018890526060820187905260006080830181905260a0830181905260c0830181905260e08301528251601f850182900482028101820190935283835290916108e9918391879187908790819084018382808284376000920182905250925061251e915050565b505050505050565b604051806040016040528060098152602001680417274687572204c560bc1b81525081565b6008546001600160701b0380821692600160701b83049091169161ffff600160e01b8204811692600160f01b9092041690565b6000610956338484612ecf565b5060015b92915050565b6006546001600160a01b031681565b600754600160a01b900460ff1681565b6005546001600160a01b0316331480156109a35750600754600160a01b900460ff16155b6109ec576040805162461bcd60e51b815260206004820152601560248201527420b93a343ab92830b4b91d102327a92124a22222a760591b604482015290519081900360640190fd5b600680546001600160a01b038086166001600160a01b0319928316811790935560078054918616919092161790556040805163313ce56760e01b8152905163313ce56791600480820192602092909190829003018186803b158015610a5057600080fd5b505afa158015610a64573d6000803e3d6000fd5b505050506040513d6020811015610a7a57600080fd5b505160ff16600a0a6009556040805163313ce56760e01b815290516001600160a01b0384169163313ce567916004808301926020929190829003018186803b158015610ac557600080fd5b505afa158015610ad9573d6000803e3d6000fd5b505050506040513d6020811015610aef57600080fd5b505160ff16600a90810a9055600d5550506007805460ff60a01b1916600160a01b179055565b60005481565b6001600160a01b038316600090815260026020908152604080832033845290915281205460001914610bdc576001600160a01b0384166000908152600260209081526040808320338452909152812054610b7b908463ffffffff612f3116565b6001600160a01b038616600081815260026020908152604080832033808552908352928190208590558051858152905194955091937f8c5be1e5ebec7d5bd14f71427d1e84f3dd0314c0f7b2291e5b200ac8c7c3b9259281900390910190a3505b610be7848484612f81565b5060015b9392505050565b600a5481565b600854600160f01b900461ffff1681565b600e54600114610c4e576040805162461bcd60e51b81526020600482015260126024820152600080516020613c6a833981519152604482015290519081900360640190fd5b6000600e5560055460408051637e1c813560e11b815290516001600160a01b039092169163fc39026a91600480820192602092909190829003018186803b158015610c9857600080fd5b505afa158015610cac573d6000803e3d6000fd5b505050506040513d6020811015610cc257600080fd5b50516001600160a01b03163314610d0a5760405162461bcd60e51b8152600401808060200182810382526029815260200180613cde6029913960400191505060405180910390fd5b600c54610100900460ff1615610d5f576040805162461bcd60e51b8152602060048201526015602482015274417274687572506169723a20696d6d757461626c6560581b604482015290519081900360640190fd5b600c5460ff1615158315151415610db5576040805162461bcd60e51b8152602060048201526015602482015274417274687572506169723a206e6f2075706461746560581b604482015290519081900360640190fd5b6008546001600160701b038381169116148015610de657506008546001600160701b03828116600160701b90920416145b610e2c576040805162461bcd60e51b8152602060048201526012602482015271105c9d1a1d5c94185a5c8e8819985a5b195960721b604482015290519081900360640190fd5b600854600090610e4f906001600160701b0380821691600160701b90041661303b565b600c546040805160ff90921615158252861515602083015280519293507fb6a86710bde53aa7fb1b3856279e2af5b476d53e2dd0902cf17a0911b5a43a8b92918290030190a1600c805460ff191685158015919091179091558490610eb15750805b610ebc576000610edc565b600854610edc906001600160701b0380821691600160701b9004166131f4565b600b5550506001600e555050565b7f6e71edae12b1b97f4d1f60370fef10105fa2faae0126114a169c64845d6126c981565b601281565b60035481565b60095481565b600e54600114610f64576040805162461bcd60e51b81526020600482015260126024820152600080516020613c6a833981519152604482015290519081900360640190fd5b6000600e5560055460408051638da5cb5b60e01b815290516001600160a01b0390921691638da5cb5b91600480820192602092909190829003018186803b158015610fae57600080fd5b505afa158015610fc2573d6000803e3d6000fd5b505050506040513d6020811015610fd857600080fd5b50516001600160a01b03163314611036576040805162461bcd60e51b815260206004820181905260248201527f417274687572506169723a206f6e6c7920666163746f72792773206f776e6572604482015290519081900360640190fd5b600c54610100900460ff1615611093576040805162461bcd60e51b815260206004820152601d60248201527f417274687572506169723a20616c726561647920696d6d757461626c65000000604482015290519081900360640190fd5b600c805461ff0019166101001790556040517f09122c41ae733a4d7740324d50e35fbd6ee85be3c1312a45596d8045150ab2f290600090a16001600e55565b600e54600114611117576040805162461bcd60e51b81526020600482015260126024820152600080516020613c6a833981519152604482015290519081900360640190fd5b6000600e5560055460408051634c21771560e01b815290516001600160a01b0390921691634c21771591600480820192602092909190829003018186803b15801561116157600080fd5b505afa158015611175573d6000803e3d6000fd5b505050506040513d602081101561118b57600080fd5b50516001600160a01b031633146111d35760405162461bcd60e51b8152600401808060200182810382526029815260200180613b496029913960400191505060405180910390fd5b6107d08261ffff16111580156111ef57506107d08161ffff1611155b61122a5760405162461bcd60e51b8152600401808060200182810382526031815260200180613c396031913960400191505060405180910390fd5b60008261ffff16118015611242575060008161ffff16115b61127d5760405162461bcd60e51b8152600401808060200182810382526031815260200180613bc16031913960400191505060405180910390fd5b6008805461ffff60e01b1916600160e01b61ffff858116918202929092176001600160f01b0316600160f01b9285169283021790925560408051928352602083019190915280517fa4877b8ecb5a00ba277e4bceeeb187a669e7113649774dfbea05c259ce27f17b9281900390910190a150506001600e55565b600854600160e01b900461ffff1681565b6107d081565b6000600e54600114611355576040805162461bcd60e51b81526020600482015260126024820152600080516020613c6a833981519152604482015290519081900360640190fd5b6000600e81905580611365610916565b5050600654604080516370a0823160e01b815230600482015290519395509193506000926001600160a01b03909116916370a08231916024808301926020929190829003018186803b1580156113ba57600080fd5b505afa1580156113ce573d6000803e3d6000fd5b505050506040513d60208110156113e457600080fd5b5051600754604080516370a0823160e01b815230600482015290519293506000926001600160a01b03909216916370a0823191602480820192602092909190829003018186803b15801561143757600080fd5b505afa15801561144b573d6000803e3d6000fd5b505050506040513d602081101561146157600080fd5b505190506000611480836001600160701b03871663ffffffff612f3116565b9050600061149d836001600160701b03871663ffffffff612f3116565b905060006114ab878761303b565b600054909150806114f4576114e06103e86114d46114cf878763ffffffff61330a16565b61336d565b9063ffffffff612f3116565b98506114ef60006103e86133bf565b611543565b6115406001600160701b038916611511868463ffffffff61330a16565b8161151857fe5b046001600160701b038916611533868563ffffffff61330a16565b8161153a57fe5b04613455565b98505b600089116115825760405162461bcd60e51b8152600401808060200182810382526029815260200180613cb56029913960400191505060405180910390fd5b61158c8a8a6133bf565b611596868661346b565b81156115c0576008546115bc906001600160701b0380821691600160701b9004166131f4565b600b555b6040805185815260208101859052815133927f4c209b5fc8ad50758f13e2e1088ba56a560dff690a1c6fef26394f4c03821c4f928290030190a250506001600e5550949695505050505050565b611615613af1565b5060408051610100810182526006546001600160a01b039081168252600754166020808301919091528183018990526060820188905260006080830181905260a0830181905260c0830181905260e08301528251601f860182900482028101820190935284835290916116a89183918891889088908190840183828082843760009201919091525088925061251e915050565b50505050505050565b60016020526000908152604090205481565b600b5481565b60046020526000908152604090205481565b600080600e54600114611723576040805162461bcd60e51b81526020600482015260126024820152600080516020613c6a833981519152604482015290519081900360640190fd5b6000600e55600d5442101561177f576040805162461bcd60e51b815260206004820152601d60248201527f417274687572506169723a20494e56414c49445f54494d455f4c4f434b000000604482015290519081900360640190fd5b60008061178a610916565b5050600654600754604080516370a0823160e01b815230600482015290519496509294506001600160a01b039182169391169160009184916370a08231916024808301926020929190829003018186803b1580156117e757600080fd5b505afa1580156117fb573d6000803e3d6000fd5b505050506040513d602081101561181157600080fd5b5051604080516370a0823160e01b815230600482015290519192506000916001600160a01b038516916370a08231916024808301926020929190829003018186803b15801561185f57600080fd5b505afa158015611873573d6000803e3d6000fd5b505050506040513d602081101561188957600080fd5b5051306000908152600160205260408120549192506118a8888861303b565b600054909150806118bf848763ffffffff61330a16565b816118c657fe5b049a50806118da848663ffffffff61330a16565b816118e157fe5b04995060008b1180156118f4575060008a115b61192f5760405162461bcd60e51b8152600401808060200182810382526029815260200180613b986029913960400191505060405180910390fd5b6119393084613557565b611944878d8d6135f5565b61194f868d8c6135f5565b604080516370a0823160e01b815230600482015290516001600160a01b038916916370a08231916024808301926020929190829003018186803b15801561199557600080fd5b505afa1580156119a9573d6000803e3d6000fd5b505050506040513d60208110156119bf57600080fd5b5051604080516370a0823160e01b815230600482015290519196506001600160a01b038816916370a0823191602480820192602092909190829003018186803b158015611a0b57600080fd5b505afa158015611a1f573d6000803e3d6000fd5b505050506040513d6020811015611a3557600080fd5b50519350611a43858561346b565b8115611a6d57600854611a69906001600160701b0380821691600160701b9004166131f4565b600b555b604080518c8152602081018c905281516001600160a01b038f169233927fdccd412f0b1252819cb1fd330b93224ca42612892bb3f4f789976e6d81936496929081900390910190a35050505050505050506001600e81905550915091565b60405180604001604052806005815260200164041542d4c560dc1b81525081565b600c5460ff1681565b6000610956338484612f81565b600c54610100900460ff1681565b6103e881565b600e54600114611b5b576040805162461bcd60e51b81526020600482015260126024820152600080516020613c6a833981519152604482015290519081900360640190fd5b6000600e55600654600754600854604080516370a0823160e01b815230600482015290516001600160a01b039485169490931692611c0a9285928792611c05926001600160701b03169185916370a0823191602480820192602092909190829003018186803b158015611bcd57600080fd5b505afa158015611be1573d6000803e3d6000fd5b505050506040513d6020811015611bf757600080fd5b50519063ffffffff612f3116565b6135f5565b600854604080516370a0823160e01b81523060048201529051611c719284928792611c0592600160701b90046001600160701b0316916001600160a01b038616916370a0823191602480820192602092909190829003018186803b158015611bcd57600080fd5b6040517f21ad22495c9c75cd1c94756f91824e779c0c8a8e168b267c790df464fe056b7990600090a150506001600e5550565b6005546001600160a01b031681565b600d5481565b6007546001600160a01b031681565b42841015611d12576040805162461bcd60e51b8152602060048201526012602482015271155b9a5cddd85c158c8e881156141254915160721b604482015290519081900360640190fd5b6003546001600160a01b0380891660008181526004602090815260408083208054600180820190925582517f6e71edae12b1b97f4d1f60370fef10105fa2faae0126114a169c64845d6126c98186015280840196909652958d166060860152608085018c905260a085019590955260c08085018b90528151808603909101815260e08501825280519083012061190160f01b6101008601526101028501969096526101228085019690965280518085039096018652610142840180825286519683019690962095839052610162840180825286905260ff89166101828501526101a284018890526101c28401879052519193926101e280820193601f1981019281900390910190855afa158015611e2d573d6000803e3d6000fd5b5050604051601f1901519150506001600160a01b03811615801590611e635750886001600160a01b0316816001600160a01b0316145b611eb4576040805162461bcd60e51b815260206004820152601c60248201527f556e697377617056323a20494e56414c49445f5349474e415455524500000000604482015290519081900360640190fd5b611ebf898989612ecf565b505050505050505050565b620186a081565b600260209081526000928352604080842090915290825290205481565b600e54600114611f33576040805162461bcd60e51b81526020600482015260126024820152600080516020613c6a833981519152604482015290519081900360640190fd5b6000600e5560055460408051638da5cb5b60e01b815290516001600160a01b0390921691638da5cb5b91600480820192602092909190829003018186803b158015611f7d57600080fd5b505afa158015611f91573d6000803e3d6000fd5b505050506040513d6020811015611fa757600080fd5b50516001600160a01b03163314612005576040805162461bcd60e51b815260206004820181905260248201527f417274687572506169723a206f6e6c7920666163746f72792773206f776e6572604482015290519081900360640190fd5b600c54610100900460ff161561205a576040805162461bcd60e51b8152602060048201526015602482015274417274687572506169723a20696d6d757461626c6560581b604482015290519081900360640190fd5b600d805490829055604080518281526020810184905281517fd3336cbaf0944215d95d87c5f296a4330d98fd999d83796dd20079f6ce76266f929181900390910190a150506001600e55565b60065460009081906001600160a01b038481169116146120d357600854600160f01b900461ffff166120e2565b600854600160e01b900461ffff165b60085490915061210e90859085906001600160701b0380821691600160701b90041661ffff861661378f565b949350505050565b600e5460011461215b576040805162461bcd60e51b81526020600482015260126024820152600080516020613c6a833981519152604482015290519081900360640190fd5b6000600e5560055460408051638da5cb5b60e01b815290516001600160a01b0390921691638da5cb5b91600480820192602092909190829003018186803b1580156121a557600080fd5b505afa1580156121b9573d6000803e3d6000fd5b505050506040513d60208110156121cf57600080fd5b50516001600160a01b0316331461222d576040805162461bcd60e51b815260206004820181905260248201527f417274687572506169723a206f6e6c7920666163746f72792773206f776e6572604482015290519081900360640190fd5b6006546001600160a01b0383811691161480159061225957506007546001600160a01b03838116911614155b6122aa576040805162461bcd60e51b815260206004820152601960248201527f417274687572506169723a20696e76616c696420746f6b656e00000000000000604482015290519081900360640190fd5b6123368282846001600160a01b03166370a08231306040518263ffffffff1660e01b815260040180826001600160a01b03166001600160a01b0316815260200191505060206040518083038186803b15801561230557600080fd5b505afa158015612319573d6000803e3d6000fd5b505050506040513d602081101561232f57600080fd5b50516135f5565b604080516001600160a01b0383811682529151918416917f368a9dc863ecb94b5ba32a682e26295b10d9c2666fad7d785ebdf262c3c524139181900360200190a250506001600e55565b600e546001146123c5576040805162461bcd60e51b81526020600482015260126024820152600080516020613c6a833981519152604482015290519081900360640190fd5b6000600e819055600654604080516370a0823160e01b815230600482015290516001600160a01b03909216916370a0823191602480820192602092909190829003018186803b15801561241757600080fd5b505afa15801561242b573d6000803e3d6000fd5b505050506040513d602081101561244157600080fd5b5051600754604080516370a0823160e01b815230600482015290519293506000926001600160a01b03909216916370a0823191602480820192602092909190829003018186803b15801561249457600080fd5b505afa1580156124a8573d6000803e3d6000fd5b505050506040513d60208110156124be57600080fd5b5051905081158015906124d057508015155b61250b5760405162461bcd60e51b815260040180806020018281038252602b815260200180613c8a602b913960400191505060405180910390fd5b612515828261346b565b50506001600e55565b600e54600114612563576040805162461bcd60e51b81526020600482015260126024820152600080516020613c6a833981519152604482015290519081900360640190fd5b6000600e55604084015115158061257e575060008460600151115b6125b95760405162461bcd60e51b8152600401808060200182810382526026815260200180613b726026913960400191505060405180910390fd5b6000806000806125c7610916565b9350935093509350836001600160701b031688604001511080156125f75750826001600160701b03168860600151105b6126325760405162461bcd60e51b8152600401808060200182810382526022815260200180613bf26022913960400191505060405180910390fd5b87516001600160a01b03888116911614801590612665575087602001516001600160a01b0316876001600160a01b031614155b6126af576040805162461bcd60e51b8152602060048201526016602482015275417274687572506169723a20494e56414c49445f544f60501b604482015290519081900360640190fd5b6040880151156126cc576126cc8860000151888a604001516135f5565b6060880151156126e9576126e98860200151888a606001516135f5565b8551156127e357866001600160a01b03166310d1e85c338a604001518b606001518a6040518563ffffffff1660e01b815260040180856001600160a01b03166001600160a01b0316815260200184815260200183815260200180602001828103825283818151815260200191508051906020019080838360005b8381101561277b578181015183820152602001612763565b50505050905090810190601f1680156127a85780820380516001836020036101000a031916815260200191505b5095505050505050600060405180830381600087803b1580156127ca57600080fd5b505af11580156127de573d6000803e3d6000fd5b505050505b8751604080516370a0823160e01b815230600482015290516001600160a01b03909216916370a0823191602480820192602092909190829003018186803b15801561282d57600080fd5b505afa158015612841573d6000803e3d6000fd5b505050506040513d602081101561285757600080fd5b50516080890152602088810151604080516370a0823160e01b815230600482015290516001600160a01b03909216926370a0823192602480840193829003018186803b1580156128a657600080fd5b505afa1580156128ba573d6000803e3d6000fd5b505050506040513d60208110156128d057600080fd5b505160a0890152604088015160808901516000916001600160701b03871603106128fb576000612912565b8860400151856001600160701b0316038960800151035b905060008960600151856001600160701b0316038a60a001511161293757600061294e565b8960600151856001600160701b0316038a60a00151035b9050600082118061295f5750600081115b61299a5760405162461bcd60e51b8152600401808060200182810382526025815260200180613c146025913960400191505060405180910390fd5b620186a06129b28361ffff871663ffffffff61330a16565b816129b957fe5b0460c08b0152620186a06129d78261ffff861663ffffffff61330a16565b816129de57fe5b0460e08b01526000806001600160a01b0389166129fc576000612a76565b60055460408051631c60f51f60e21b81526001600160a01b038c8116600483015291519190921691637183d47c916024808301926020929190829003018186803b158015612a4957600080fd5b505afa158015612a5d573d6000803e3d6000fd5b505050506040513d6020811015612a7357600080fd5b50515b90508015612b3b578315612ae1576402540be400612aae61ffff8816612aa2878563ffffffff61330a16565b9063ffffffff61330a16565b81612ab557fe5b049150612acf828d60c00151612f3190919063ffffffff16565b60c08d01528b51612ae1908a846135f5565b8215612b3b576402540be400612b0561ffff8716612aa2868563ffffffff61330a16565b81612b0c57fe5b049150612b26828d60e00151612f3190919063ffffffff16565b60e08d015260208c0151612b3b908a846135f5565b600c5460ff1615612ca35760055460408051634cadad5760e11b8152815160009384936001600160a01b039091169263995b5aae9260048083019392829003018186803b158015612b8b57600080fd5b505afa158015612b9f573d6000803e3d6000fd5b505050506040513d6040811015612bb557600080fd5b50805160209091015190925090506001600160a01b03811615612ca057612be982612aa2620186a08663ffffffff612f3116565b91508515612c445766038d7ea4c68000612c1161ffff8a16612aa2898663ffffffff61330a16565b81612c1857fe5b049350612c32848f60c00151612f3190919063ffffffff16565b60c08f01528d51612c449082866135f5565b8415612ca05766038d7ea4c68000612c6a61ffff8916612aa2888663ffffffff61330a16565b81612c7157fe5b049350612c8b848f60e00151612f3190919063ffffffff16565b60e08f015260208e0151612ca09082866135f5565b50505b8315612d25578b51604080516370a0823160e01b815230600482015290516001600160a01b03909216916370a0823191602480820192602092909190829003018186803b158015612cf357600080fd5b505afa158015612d07573d6000803e3d6000fd5b505050506040513d6020811015612d1d57600080fd5b505160808d01525b8215612da5576020808d0151604080516370a0823160e01b815230600482015290516001600160a01b03909216926370a0823192602480840193829003018186803b158015612d7357600080fd5b505afa158015612d87573d6000803e3d6000fd5b505050506040513d6020811015612d9d57600080fd5b505160a08d01525b50506000612dc48b60c001518c60800151612f3190919063ffffffff16565b90506000612de38c60e001518d60a00151612f3190919063ffffffff16565b9050612e01886001600160701b0316886001600160701b03166131f4565b612e0b83836131f4565b1015612e4e576040805162461bcd60e51b815260206004820152600d60248201526c417274687572506169723a204b60981b604482015290519081900360640190fd5b5050612e628a608001518b60a0015161346b565b6040808b01516060808d0151835186815260208101869052808501939093529082015290516001600160a01b038b169133917fd78ad95fa46c994b6551d0da85fc275fe613ce37657fb8d5e3d130840159d8229181900360800190a350506001600e555050505050505050565b6001600160a01b03808416600081815260026020908152604080832094871680845294825291829020859055815185815291517f8c5be1e5ebec7d5bd14f71427d1e84f3dd0314c0f7b2291e5b200ac8c7c3b9259281900390910190a3505050565b8082038281111561095a576040805162461bcd60e51b815260206004820152601560248201527464732d6d6174682d7375622d756e646572666c6f7760581b604482015290519081900360640190fd5b6001600160a01b038316600090815260016020526040902054612faa908263ffffffff612f3116565b6001600160a01b038085166000908152600160205260408082209390935590841681522054612fdf908263ffffffff61395d16565b6001600160a01b0380841660008181526001602090815260409182902094909455805185815290519193928716927fddf252ad1be2c89b69c2b068fc378daa952ba7f163c4a11628f55a4df523b3ef92918290030190a3505050565b600c5460009060ff16156130515750600061095a565b60055460408051634cadad5760e11b8152815160009384936001600160a01b039091169263995b5aae9260048083019392829003018186803b15801561309657600080fd5b505afa1580156130aa573d6000803e3d6000fd5b505050506040513d60408110156130c057600080fd5b508051602090910151600b546001600160a01b0382161580159650929450909250906131df5780156131da57600061310d6114cf886001600160701b0316886001600160701b03166131f4565b9050600061311a8361336d565b9050808211156131d757600061315360648761313f620186a08363ffffffff61330a16565b8161314657fe5b049063ffffffff612f3116565b9050600061317e6064612aa261316f878763ffffffff612f3116565b6000549063ffffffff61330a16565b905060006131b261319685606463ffffffff61330a16565b6131a6878663ffffffff61330a16565b9063ffffffff61395d16565b905060008183816131bf57fe5b04905080156131d2576131d288826133bf565b505050505b50505b6131eb565b80156131eb576000600b555b50505092915050565b600c5460009060ff16156132fa5760095460009061322085670de0b6b3a764000063ffffffff61330a16565b8161322757fe5b0490506000600a5461324a670de0b6b3a76400008661330a90919063ffffffff16565b8161325157fe5b0490506000670de0b6b3a764000061326f848463ffffffff61330a16565b8161327657fe5b04905060006132cc670de0b6b3a7640000613297858063ffffffff61330a16565b8161329e57fe5b04670de0b6b3a76400006132b8878063ffffffff61330a16565b816132bf57fe5b049063ffffffff61395d16565b9050670de0b6b3a76400006132e7838363ffffffff61330a16565b816132ee57fe5b0494505050505061095a565b610beb838363ffffffff61330a16565b60008115806133255750508082028282828161332257fe5b04145b61095a576040805162461bcd60e51b815260206004820152601460248201527364732d6d6174682d6d756c2d6f766572666c6f7760601b604482015290519081900360640190fd5b600060038211156133b0575080600160028204015b818110156133aa5780915060028182858161339957fe5b0401816133a257fe5b049050613382565b506133ba565b81156133ba575060015b919050565b6000546133d2908263ffffffff61395d16565b60009081556001600160a01b0383168152600160205260409020546133fd908263ffffffff61395d16565b6001600160a01b03831660008181526001602090815260408083209490945583518581529351929391927fddf252ad1be2c89b69c2b068fc378daa952ba7f163c4a11628f55a4df523b3ef9281900390910190a35050565b60008183106134645781610beb565b5090919050565b6001600160701b03821180159061348957506001600160701b038111155b6134d1576040805162461bcd60e51b8152602060048201526014602482015273417274687572506169723a204f564552464c4f5760601b604482015290519081900360640190fd5b600880546dffffffffffffffffffffffffffff19166001600160701b038481169182176dffffffffffffffffffffffffffff60701b1916600160701b9185169182021790925560408051918252602082019290925281517f1c411e9a96e071241c2f21f7726b17ae89e3cab4c78be50e062b03a9fffbbad1929181900390910190a15050565b6001600160a01b038216600090815260016020526040902054613580908263ffffffff612f3116565b6001600160a01b038316600090815260016020526040812091909155546135ad908263ffffffff612f3116565b60009081556040805183815290516001600160a01b038516917fddf252ad1be2c89b69c2b068fc378daa952ba7f163c4a11628f55a4df523b3ef919081900360200190a35050565b604080518082018252601981527f7472616e7366657228616464726573732c75696e74323536290000000000000060209182015281516001600160a01b0385811660248301526044808301869052845180840390910181526064909201845291810180516001600160e01b031663a9059cbb60e01b1781529251815160009460609489169392918291908083835b602083106136a25780518252601f199092019160209182019101613683565b6001836020036101000a0380198251168184511680821785525050505050509050019150506000604051808303816000865af19150503d8060008114613704576040519150601f19603f3d011682016040523d82523d6000602084013e613709565b606091505b5091509150818015613737575080511580613737575080806020019051602081101561373457600080fd5b50515b613788576040805162461bcd60e51b815260206004820152601b60248201527f417274687572506169723a205452414e534645525f4641494c45440000000000604482015290519081900360640190fd5b5050505050565b600c5460009060ff16156138d2576137ca620186a06137b4888563ffffffff61330a16565b816137bb57fe5b8891900463ffffffff612f3116565b955060006137d885856131f4565b905060095485670de0b6b3a764000002816137ef57fe5b049450600a5484670de0b6b3a7640000028161380757fe5b600654919004945060009081906001600160a01b0389811691161461382d578587613830565b86865b60065491935091506001600160a01b0389811691161461386557600a5489670de0b6b3a7640000028161385f57fe5b0461387c565b60095489670de0b6b3a7640000028161387a57fe5b045b9850600061388d838b0185846139ac565b6006549083039150670de0b6b3a7640000906001600160a01b038b81169116146138b9576009546138bd565b600a545b8202816138c657fe5b04945050505050613954565b60065460009081906001600160a01b038881169116146138f35784866138f6565b85855b909250905061391e613911620186a08663ffffffff612f3116565b899063ffffffff61330a16565b9750613937886131a684620186a063ffffffff61330a16565b613947898363ffffffff61330a16565b8161394e57fe5b04925050505b95945050505050565b8082018281101561095a576040805162461bcd60e51b815260206004820152601460248201527364732d6d6174682d6164642d6f766572666c6f7760601b604482015290519081900360640190fd5b6000805b60ff811015613a64578260006139c68783613a6d565b9050858110156139fc5760006139dc8887613abd565b828803670de0b6b3a764000002816139f057fe5b04959095019450613a23565b6000613a088887613abd565b878303670de0b6b3a76400000281613a1c57fe5b0490950394505b81851115613a4557600182860311613a4057849350505050610beb565b613a5a565b600185830311613a5a57849350505050610beb565b50506001016139b0565b50909392505050565b6000670de0b6b3a764000082818581818002040281613a8857fe5b040281613a9157fe5b04670de0b6b3a7640000808481818002040281613aaa57fe5b04850281613ab457fe5b04019392505050565b6000670de0b6b3a76400008381818002040281613ad657fe5b04670de0b6b3a76400008084800204856003020281613ab457fe5b60405180610100016040528060006001600160a01b0316815260200160006001600160a01b03168152602001600081526020016000815260200160008152602001600081526020016000815260200160008152509056fe417274687572506169723a206f6e6c7920666163746f7279277320666565416d6f756e744f776e6572417274687572506169723a20494e53554646494349454e545f4f55545055545f414d4f554e54417274687572506169723a20494e53554646494349454e545f4c49515549444954595f4255524e4544417274687572506169723a2066656550657263656e74206d7573746e27742065786365656420746865206d696e696d756d417274687572506169723a20494e53554646494349454e545f4c4951554944495459417274687572506169723a20494e53554646494349454e545f494e5055545f414d4f554e54417274687572506169723a2066656550657263656e74206d7573746e27742065786365656420746865206d6178696d756d417274687572506169723a204c4f434b45440000000000000000000000000000417274687572506169723a206c697175696469747920726174696f206e6f7420696e697469616c697a6564417274687572506169723a20494e53554646494349454e545f4c49515549444954595f4d494e544544417274687572506169723a206f6e6c7920666163746f7279277320736574537461626c654f776e6572a265627a7a723158203b0a2868cb0dd1897c15b8b7f2abca68fbe9c16c9446e8d6137dec67f607632464736f6c63430005100032454950373132446f6d61696e28737472696e67206e616d652c737472696e672076657273696f6e2c75696e7432353620636861696e49642c6164647265737320766572696679696e67436f6e747261637429417274687572466163746f72793a2072656665727265724665655368617265206d7573746e277420657863656564206d6178696d756d417274687572466163746f72793a2063616c6c6572206973206e6f7420746865206f776e6572417274687572466163746f72793a204944454e544943414c5f414444524553534553417274687572466163746f72793a207a65726f20616464726573730000000000417274687572466163746f72793a206f776e65724665655368617265206d7573746e277420657863656564206d6178696d756d417274687572466163746f72793a206f776e65724665655368617265206d7573746e277420657863656564206d696e696d756d417274687572466163746f72793a206e6f7420736574537461626c654f776e6572a265627a7a72315820d6964f1d313102b853403f2a5fec5ccea2de93daa2503c16b6c802ba7d1a847864736f6c63430005100032",
    "linkReferences": {},
    "deployedLinkReferences": {}
}